{
  "contractName": "Automaton",
  "abi": [
    {
      "inputs": [
        {
          "internalType": "address",
          "name": "baseCurrency",
          "type": "address"
        },
        {
          "internalType": "address",
          "name": "shareToken",
          "type": "address"
        }
      ],
      "payable": false,
      "stateMutability": "nonpayable",
      "type": "constructor"
    },
    {
      "anonymous": false,
      "inputs": [
        {
          "indexed": true,
          "internalType": "address",
          "name": "previousOwner",
          "type": "address"
        },
        {
          "indexed": true,
          "internalType": "address",
          "name": "newOwner",
          "type": "address"
        }
      ],
      "name": "OwnershipTransferred",
      "type": "event"
    },
    {
      "anonymous": false,
      "inputs": [
        {
          "indexed": false,
          "internalType": "address",
          "name": "account",
          "type": "address"
        }
      ],
      "name": "Paused",
      "type": "event"
    },
    {
      "anonymous": false,
      "inputs": [
        {
          "indexed": false,
          "internalType": "address",
          "name": "who",
          "type": "address"
        },
        {
          "indexed": false,
          "internalType": "int256",
          "name": "amount",
          "type": "int256"
        },
        {
          "indexed": false,
          "internalType": "address",
          "name": "token",
          "type": "address"
        },
        {
          "indexed": false,
          "internalType": "uint256",
          "name": "totPrice",
          "type": "uint256"
        },
        {
          "indexed": false,
          "internalType": "uint256",
          "name": "fee",
          "type": "uint256"
        },
        {
          "indexed": false,
          "internalType": "address",
          "name": "base",
          "type": "address"
        },
        {
          "indexed": false,
          "internalType": "uint256",
          "name": "price",
          "type": "uint256"
        }
      ],
      "name": "Transaction",
      "type": "event"
    },
    {
      "anonymous": false,
      "inputs": [
        {
          "indexed": false,
          "internalType": "address",
          "name": "account",
          "type": "address"
        }
      ],
      "name": "Unpaused",
      "type": "event"
    },
    {
      "constant": true,
      "inputs": [],
      "name": "base",
      "outputs": [
        {
          "internalType": "address",
          "name": "",
          "type": "address"
        }
      ],
      "payable": false,
      "stateMutability": "view",
      "type": "function"
    },
    {
      "constant": true,
      "inputs": [],
      "name": "copyright",
      "outputs": [
        {
          "internalType": "address",
          "name": "",
          "type": "address"
        }
      ],
      "payable": false,
      "stateMutability": "view",
      "type": "function"
    },
    {
      "constant": true,
      "inputs": [],
      "name": "increment",
      "outputs": [
        {
          "internalType": "uint256",
          "name": "",
          "type": "uint256"
        }
      ],
      "payable": false,
      "stateMutability": "view",
      "type": "function"
    },
    {
      "constant": true,
      "inputs": [],
      "name": "isOwner",
      "outputs": [
        {
          "internalType": "bool",
          "name": "",
          "type": "bool"
        }
      ],
      "payable": false,
      "stateMutability": "view",
      "type": "function"
    },
    {
      "constant": true,
      "inputs": [],
      "name": "licenseFeeBps",
      "outputs": [
        {
          "internalType": "uint8",
          "name": "",
          "type": "uint8"
        }
      ],
      "payable": false,
      "stateMutability": "view",
      "type": "function"
    },
    {
      "constant": true,
      "inputs": [],
      "name": "owner",
      "outputs": [
        {
          "internalType": "address",
          "name": "",
          "type": "address"
        }
      ],
      "payable": false,
      "stateMutability": "view",
      "type": "function"
    },
    {
      "constant": false,
      "inputs": [],
      "name": "pause",
      "outputs": [],
      "payable": false,
      "stateMutability": "nonpayable",
      "type": "function"
    },
    {
      "constant": true,
      "inputs": [],
      "name": "paused",
      "outputs": [
        {
          "internalType": "bool",
          "name": "",
          "type": "bool"
        }
      ],
      "payable": false,
      "stateMutability": "view",
      "type": "function"
    },
    {
      "constant": false,
      "inputs": [],
      "name": "renounceOwnership",
      "outputs": [],
      "payable": false,
      "stateMutability": "nonpayable",
      "type": "function"
    },
    {
      "constant": true,
      "inputs": [],
      "name": "token",
      "outputs": [
        {
          "internalType": "address",
          "name": "",
          "type": "address"
        }
      ],
      "payable": false,
      "stateMutability": "view",
      "type": "function"
    },
    {
      "constant": false,
      "inputs": [
        {
          "internalType": "address",
          "name": "newOwner",
          "type": "address"
        }
      ],
      "name": "transferOwnership",
      "outputs": [],
      "payable": false,
      "stateMutability": "nonpayable",
      "type": "function"
    },
    {
      "constant": false,
      "inputs": [],
      "name": "unpause",
      "outputs": [],
      "payable": false,
      "stateMutability": "nonpayable",
      "type": "function"
    },
    {
      "constant": false,
      "inputs": [
        {
          "internalType": "uint256",
          "name": "newPrice",
          "type": "uint256"
        },
        {
          "internalType": "uint256",
          "name": "newIncrement",
          "type": "uint256"
        }
      ],
      "name": "setPrice",
      "outputs": [],
      "payable": false,
      "stateMutability": "nonpayable",
      "type": "function"
    },
    {
      "constant": true,
      "inputs": [],
      "name": "hasDrift",
      "outputs": [
        {
          "internalType": "bool",
          "name": "",
          "type": "bool"
        }
      ],
      "payable": false,
      "stateMutability": "view",
      "type": "function"
    },
    {
      "constant": false,
      "inputs": [
        {
          "internalType": "uint256",
          "name": "secondsPerStep",
          "type": "uint256"
        },
        {
          "internalType": "bool",
          "name": "upwards",
          "type": "bool"
        }
      ],
      "name": "setDrift",
      "outputs": [],
      "payable": false,
      "stateMutability": "nonpayable",
      "type": "function"
    },
    {
      "constant": true,
      "inputs": [
        {
          "internalType": "uint256",
          "name": "shares",
          "type": "uint256"
        }
      ],
      "name": "getPriceInEther",
      "outputs": [
        {
          "internalType": "uint256",
          "name": "",
          "type": "uint256"
        }
      ],
      "payable": false,
      "stateMutability": "view",
      "type": "function"
    },
    {
      "constant": false,
      "inputs": [
        {
          "internalType": "uint256",
          "name": "shares",
          "type": "uint256"
        }
      ],
      "name": "buyWithEther",
      "outputs": [
        {
          "internalType": "uint256",
          "name": "",
          "type": "uint256"
        }
      ],
      "payable": true,
      "stateMutability": "payable",
      "type": "function"
    },
    {
      "constant": false,
      "inputs": [
        {
          "internalType": "address",
          "name": "recipient",
          "type": "address"
        },
        {
          "internalType": "uint256",
          "name": "numberOfSharesToBuy",
          "type": "uint256"
        }
      ],
      "name": "buy",
      "outputs": [
        {
          "internalType": "uint256",
          "name": "",
          "type": "uint256"
        }
      ],
      "payable": false,
      "stateMutability": "nonpayable",
      "type": "function"
    },
    {
      "constant": false,
      "inputs": [
        {
          "internalType": "uint256",
          "name": "numberOfSharesToBuy",
          "type": "uint256"
        }
      ],
      "name": "buy",
      "outputs": [
        {
          "internalType": "uint256",
          "name": "",
          "type": "uint256"
        }
      ],
      "payable": false,
      "stateMutability": "nonpayable",
      "type": "function"
    },
    {
      "constant": false,
      "inputs": [
        {
          "internalType": "address",
          "name": "recipient",
          "type": "address"
        },
        {
          "internalType": "uint256",
          "name": "tokens",
          "type": "uint256"
        }
      ],
      "name": "sell",
      "outputs": [
        {
          "internalType": "uint256",
          "name": "",
          "type": "uint256"
        }
      ],
      "payable": false,
      "stateMutability": "nonpayable",
      "type": "function"
    },
    {
      "constant": false,
      "inputs": [
        {
          "internalType": "uint256",
          "name": "tokens",
          "type": "uint256"
        }
      ],
      "name": "sell",
      "outputs": [
        {
          "internalType": "uint256",
          "name": "",
          "type": "uint256"
        }
      ],
      "payable": false,
      "stateMutability": "nonpayable",
      "type": "function"
    },
    {
      "constant": false,
      "inputs": [
        {
          "internalType": "address",
          "name": "from",
          "type": "address"
        },
        {
          "internalType": "uint256",
          "name": "amount",
          "type": "uint256"
        },
        {
          "internalType": "bytes",
          "name": "",
          "type": "bytes"
        }
      ],
      "name": "onTokenTransfer",
      "outputs": [
        {
          "internalType": "bool",
          "name": "success",
          "type": "bool"
        }
      ],
      "payable": false,
      "stateMutability": "nonpayable",
      "type": "function"
    },
    {
      "constant": true,
      "inputs": [
        {
          "internalType": "uint256",
          "name": "totalPrice",
          "type": "uint256"
        }
      ],
      "name": "getSaleFee",
      "outputs": [
        {
          "internalType": "uint256",
          "name": "",
          "type": "uint256"
        }
      ],
      "payable": false,
      "stateMutability": "view",
      "type": "function"
    },
    {
      "constant": true,
      "inputs": [
        {
          "internalType": "uint256",
          "name": "shares",
          "type": "uint256"
        }
      ],
      "name": "getSaleProceeds",
      "outputs": [
        {
          "internalType": "uint256",
          "name": "",
          "type": "uint256"
        }
      ],
      "payable": false,
      "stateMutability": "view",
      "type": "function"
    },
    {
      "constant": true,
      "inputs": [
        {
          "internalType": "uint256",
          "name": "shares",
          "type": "uint256"
        }
      ],
      "name": "getSellPrice",
      "outputs": [
        {
          "internalType": "uint256",
          "name": "",
          "type": "uint256"
        }
      ],
      "payable": false,
      "stateMutability": "view",
      "type": "function"
    },
    {
      "constant": true,
      "inputs": [
        {
          "internalType": "uint256",
          "name": "shares",
          "type": "uint256"
        }
      ],
      "name": "getBuyPrice",
      "outputs": [
        {
          "internalType": "uint256",
          "name": "",
          "type": "uint256"
        }
      ],
      "payable": false,
      "stateMutability": "view",
      "type": "function"
    },
    {
      "constant": true,
      "inputs": [],
      "name": "getPrice",
      "outputs": [
        {
          "internalType": "uint256",
          "name": "",
          "type": "uint256"
        }
      ],
      "payable": false,
      "stateMutability": "view",
      "type": "function"
    },
    {
      "constant": true,
      "inputs": [
        {
          "internalType": "uint256",
          "name": "timestamp",
          "type": "uint256"
        }
      ],
      "name": "getPrice",
      "outputs": [
        {
          "internalType": "uint256",
          "name": "",
          "type": "uint256"
        }
      ],
      "payable": false,
      "stateMutability": "view",
      "type": "function"
    },
    {
      "constant": true,
      "inputs": [
        {
          "internalType": "uint256",
          "name": "money",
          "type": "uint256"
        }
      ],
      "name": "getShares",
      "outputs": [
        {
          "internalType": "uint256",
          "name": "",
          "type": "uint256"
        }
      ],
      "payable": false,
      "stateMutability": "view",
      "type": "function"
    },
    {
      "constant": false,
      "inputs": [
        {
          "internalType": "address",
          "name": "newOwner",
          "type": "address"
        }
      ],
      "name": "setCopyright",
      "outputs": [],
      "payable": false,
      "stateMutability": "nonpayable",
      "type": "function"
    },
    {
      "constant": false,
      "inputs": [
        {
          "internalType": "uint8",
          "name": "bps",
          "type": "uint8"
        }
      ],
      "name": "setLicenseFee",
      "outputs": [],
      "payable": false,
      "stateMutability": "nonpayable",
      "type": "function"
    },
    {
      "constant": false,
      "inputs": [
        {
          "internalType": "address",
          "name": "ercAddress",
          "type": "address"
        },
        {
          "internalType": "address",
          "name": "to",
          "type": "address"
        },
        {
          "internalType": "uint256",
          "name": "amount",
          "type": "uint256"
        }
      ],
      "name": "withdraw",
      "outputs": [],
      "payable": false,
      "stateMutability": "nonpayable",
      "type": "function"
    }
  ],
  "bytecode": "0x608060405234801561001057600080fd5b506040516129d33803806129d38339818101604052604081101561003357600080fd5b810190808051906020019092919080519060200190929190505050336000806101000a81548173ffffffffffffffffffffffffffffffffffffffff021916908373ffffffffffffffffffffffffffffffffffffffff1602179055506000809054906101000a900473ffffffffffffffffffffffffffffffffffffffff1673ffffffffffffffffffffffffffffffffffffffff16600073ffffffffffffffffffffffffffffffffffffffff167f8be0079c531659141344cd1fd0a4f28419497f9722a3daafe3b4186f6b6457e060405160405180910390a360008060146101000a81548160ff02191690831515021790555081600160006101000a81548173ffffffffffffffffffffffffffffffffffffffff021916908373ffffffffffffffffffffffffffffffffffffffff16021790555080600260006101000a81548173ffffffffffffffffffffffffffffffffffffffff021916908373ffffffffffffffffffffffffffffffffffffffff16021790555033600360006101000a81548173ffffffffffffffffffffffffffffffffffffffff021916908373ffffffffffffffffffffffffffffffffffffffff16021790555042600681905550600060078190555050506127cc806102076000396000f3fe6080604052600436106101e35760003560e01c8063a63ae9c711610102578063d96a094a11610095578063e757223011610064578063e757223014610a39578063f2fde38b14610a88578063f7d9757714610ad9578063fc0c546a14610b1e576101e3565b8063d96a094a146108d1578063d9caed1214610920578063e21ae4321461099b578063e4849b32146109ea576101e3565b8063ba8f1b69116100d1578063ba8f1b6914610797578063c3b929f7146107e6578063cce7ec1314610837578063d09de08a146108a6576101e3565b8063a63ae9c714610671578063a6c677f6146106c8578063ae539d80146106f9578063ba730e5314610748576101e3565b8063756d095e1161017a5780638da5cb5b116101495780638da5cb5b146104b65780638f32d59b1461050d57806398d5fdca1461053c578063a4c0ed3614610567576101e3565b8063756d095e146103eb57806380aa0df7146104325780638456cb59146104705780638a07d3d014610487576101e3565b80635c975abb116101b65780635c975abb146102e75780636c197ff5146103165780636f7267b714610385578063715018a6146103d4576101e3565b806308d4db14146101e85780633f4ba83a146102375780635001f3b51461024e578063550b9c11146102a5575b600080fd5b3480156101f457600080fd5b506102216004803603602081101561020b57600080fd5b8101908080359060200190929190505050610b75565b6040518082815260200191505060405180910390f35b34801561024357600080fd5b5061024c610b8f565b005b34801561025a57600080fd5b50610263610c90565b604051808273ffffffffffffffffffffffffffffffffffffffff1673ffffffffffffffffffffffffffffffffffffffff16815260200191505060405180910390f35b6102d1600480360360208110156102bb57600080fd5b8101908080359060200190929190505050610cb6565b6040518082815260200191505060405180910390f35b3480156102f357600080fd5b506102fc611038565b604051808215151515815260200191505060405180910390f35b34801561032257600080fd5b5061036f6004803603604081101561033957600080fd5b81019080803573ffffffffffffffffffffffffffffffffffffffff1690602001909291908035906020019092919050505061104e565b6040518082815260200191505060405180910390f35b34801561039157600080fd5b506103be600480360360208110156103a857600080fd5b8101908080359060200190929190505050611063565b6040518082815260200191505060405180910390f35b3480156103e057600080fd5b506103e9611078565b005b3480156103f757600080fd5b506104306004803603604081101561040e57600080fd5b8101908080359060200190929190803515159060200190929190505050611148565b005b34801561043e57600080fd5b5061046e6004803603602081101561045557600080fd5b81019080803560ff169060200190929190505050611191565b005b34801561047c57600080fd5b50610485611219565b005b34801561049357600080fd5b5061049c61131c565b604051808215151515815260200191505060405180910390f35b3480156104c257600080fd5b506104cb611329565b604051808273ffffffffffffffffffffffffffffffffffffffff1673ffffffffffffffffffffffffffffffffffffffff16815260200191505060405180910390f35b34801561051957600080fd5b50610522611352565b604051808215151515815260200191505060405180910390f35b34801561054857600080fd5b506105516113a9565b6040518082815260200191505060405180910390f35b34801561057357600080fd5b506106576004803603606081101561058a57600080fd5b81019080803573ffffffffffffffffffffffffffffffffffffffff16906020019092919080359060200190929190803590602001906401000000008111156105d157600080fd5b8201836020820111156105e357600080fd5b8035906020019184600183028401116401000000008311171561060557600080fd5b91908080601f016020809104026020016040519081016040528093929190818152602001838380828437600081840152601f19601f8201169050808301925050505050505091929192905050506113b9565b604051808215151515815260200191505060405180910390f35b34801561067d57600080fd5b50610686611550565b604051808273ffffffffffffffffffffffffffffffffffffffff1673ffffffffffffffffffffffffffffffffffffffff16815260200191505060405180910390f35b3480156106d457600080fd5b506106dd611576565b604051808260ff1660ff16815260200191505060405180910390f35b34801561070557600080fd5b506107326004803603602081101561071c57600080fd5b8101908080359060200190929190505050611589565b6040518082815260200191505060405180910390f35b34801561075457600080fd5b506107816004803603602081101561076b57600080fd5b8101908080359060200190929190505050611832565b6040518082815260200191505060405180910390f35b3480156107a357600080fd5b506107d0600480360360208110156107ba57600080fd5b8101908080359060200190929190505050611872565b6040518082815260200191505060405180910390f35b3480156107f257600080fd5b506108356004803603602081101561080957600080fd5b81019080803573ffffffffffffffffffffffffffffffffffffffff1690602001909291905050506118b4565b005b34801561084357600080fd5b506108906004803603604081101561085a57600080fd5b81019080803573ffffffffffffffffffffffffffffffffffffffff16906020019092919080359060200190929190505050611952565b6040518082815260200191505060405180910390f35b3480156108b257600080fd5b506108bb611969565b6040518082815260200191505060405180910390f35b3480156108dd57600080fd5b5061090a600480360360208110156108f457600080fd5b810190808035906020019092919050505061196f565b6040518082815260200191505060405180910390f35b34801561092c57600080fd5b506109996004803603606081101561094357600080fd5b81019080803573ffffffffffffffffffffffffffffffffffffffff169060200190929190803573ffffffffffffffffffffffffffffffffffffffff16906020019092919080359060200190929190505050611982565b005b3480156109a757600080fd5b506109d4600480360360208110156109be57600080fd5b8101908080359060200190929190505050611ad2565b6040518082815260200191505060405180910390f35b3480156109f657600080fd5b50610a2360048036036020811015610a0d57600080fd5b8101908080359060200190929190505050611af3565b6040518082815260200191505060405180910390f35b348015610a4557600080fd5b50610a7260048036036020811015610a5c57600080fd5b8101908080359060200190929190505050611b06565b6040518082815260200191505060405180910390f35b348015610a9457600080fd5b50610ad760048036036020811015610aab57600080fd5b81019080803573ffffffffffffffffffffffffffffffffffffffff169060200190929190505050611bb2565b005b348015610ae557600080fd5b50610b1c60048036036040811015610afc57600080fd5b810190808035906020019092919080359060200190929190505050611bcf565b005b348015610b2a57600080fd5b50610b33611bf9565b604051808273ffffffffffffffffffffffffffffffffffffffff1673ffffffffffffffffffffffffffffffffffffffff16815260200191505060405180910390f35b6000610b88610b826113a9565b83611c1f565b9050919050565b600060149054906101000a900460ff16610c11576040517f08c379a00000000000000000000000000000000000000000000000000000000081526004018080602001828103825260038152602001807f617364000000000000000000000000000000000000000000000000000000000081525060200191505060405180910390fd5b60008060146101000a81548160ff0219169083151502179055507f5db9ee0a495bf2e6ff9c91a7834c1ba4fdd244a5e8aa4e537bd38aeae4b073aa33604051808273ffffffffffffffffffffffffffffffffffffffff1673ffffffffffffffffffffffffffffffffffffffff16815260200191505060405180910390a1565b600160009054906101000a900473ffffffffffffffffffffffffffffffffffffffff1681565b600080610cc283610b75565b905060606002604051908082528060200260200182016040528015610cf65781602001602082028038833980820191505090505b50905073c02aaa39b223fe8d0a0e5c4f27ead9083c756cc281600081518110610d1b57fe5b602002602001019073ffffffffffffffffffffffffffffffffffffffff16908173ffffffffffffffffffffffffffffffffffffffff1681525050600160009054906101000a900473ffffffffffffffffffffffffffffffffffffffff1681600181518110610d8557fe5b602002602001019073ffffffffffffffffffffffffffffffffffffffff16908173ffffffffffffffffffffffffffffffffffffffff16815250506060737a250d5630b4cf539739df2c5dacb4c659f2488d73ffffffffffffffffffffffffffffffffffffffff1663fb3bdb41848430436040518563ffffffff1660e01b815260040180858152602001806020018473ffffffffffffffffffffffffffffffffffffffff1673ffffffffffffffffffffffffffffffffffffffff168152602001838152602001828103825285818151815260200191508051906020019060200280838360005b83811015610e85578082015181840152602081019050610e6a565b5050505090500195505050505050600060405180830381600087803b158015610ead57600080fd5b505af1158015610ec1573d6000803e3d6000fd5b505050506040513d6000823e3d601f19601f820116820180604052506020811015610eeb57600080fd5b8101908080516040519392919084640100000000821115610f0b57600080fd5b83820191506020820185811115610f2157600080fd5b8251866020820283011164010000000082111715610f3e57600080fd5b8083526020830192505050908051906020019060200280838360005b83811015610f75578082015181840152602081019050610f5a565b50505050905001604052505050905080600181518110610f9157fe5b60200260200101518314610fa157fe5b610fc133338784600181518110610fb457fe5b6020026020010151611c85565b5060004790506000811115611018573373ffffffffffffffffffffffffffffffffffffffff166108fc829081150290604051600060405180830381858888f19350505050158015611016573d6000803e3d6000fd5b505b8160008151811061102557fe5b6020026020010151945050505050919050565b60008060149054906101000a900460ff16905090565b600061105b338484612100565b905092915050565b60006110718260045461223b565b9050919050565b611080611352565b61108957600080fd5b600073ffffffffffffffffffffffffffffffffffffffff166000809054906101000a900473ffffffffffffffffffffffffffffffffffffffff1673ffffffffffffffffffffffffffffffffffffffff167f8be0079c531659141344cd1fd0a4f28419497f9722a3daafe3b4186f6b6457e060405160405180910390a360008060006101000a81548173ffffffffffffffffffffffffffffffffffffffff021916908373ffffffffffffffffffffffffffffffffffffffff160217905550565b611150611352565b61115957600080fd5b61116c6111646113a9565b600554611bcf565b8160078190555080600860006101000a81548160ff0219169083151502179055505050565b600360009054906101000a900473ffffffffffffffffffffffffffffffffffffffff1673ffffffffffffffffffffffffffffffffffffffff163373ffffffffffffffffffffffffffffffffffffffff16146111eb57600080fd5b60648160ff16106111fb57600080fd5b80600360146101000a81548160ff021916908360ff16021790555050565b600060149054906101000a900460ff161561129c576040517f08c379a00000000000000000000000000000000000000000000000000000000081526004018080602001828103825260038152602001807f617364000000000000000000000000000000000000000000000000000000000081525060200191505060405180910390fd5b6001600060146101000a81548160ff0219169083151502179055507f62e78cea01bee320cd4e420270b5ea74000d11b0c9f74754ebdbfc544b05a25833604051808273ffffffffffffffffffffffffffffffffffffffff1673ffffffffffffffffffffffffffffffffffffffff16815260200191505060405180910390a1565b6000806007541415905090565b60008060009054906101000a900473ffffffffffffffffffffffffffffffffffffffff16905090565b60008060009054906101000a900473ffffffffffffffffffffffffffffffffffffffff1673ffffffffffffffffffffffffffffffffffffffff163373ffffffffffffffffffffffffffffffffffffffff1614905090565b60006113b442611b06565b905090565b6000600260009054906101000a900473ffffffffffffffffffffffffffffffffffffffff1673ffffffffffffffffffffffffffffffffffffffff163373ffffffffffffffffffffffffffffffffffffffff1614806114645750600160009054906101000a900473ffffffffffffffffffffffffffffffffffffffff1673ffffffffffffffffffffffffffffffffffffffff163373ffffffffffffffffffffffffffffffffffffffff16145b61146d57600080fd5b600260009054906101000a900473ffffffffffffffffffffffffffffffffffffffff1673ffffffffffffffffffffffffffffffffffffffff163373ffffffffffffffffffffffffffffffffffffffff1614156114d3576114cd8484612292565b50611545565b600160009054906101000a900473ffffffffffffffffffffffffffffffffffffffff1673ffffffffffffffffffffffffffffffffffffffff163373ffffffffffffffffffffffffffffffffffffffff161415611538576115338484612607565b611544565b600061154357600080fd5b5b5b600190509392505050565b600360009054906101000a900473ffffffffffffffffffffffffffffffffffffffff1681565b600360149054906101000a900460ff1681565b60008061159583610b75565b9050606060026040519080825280602002602001820160405280156115c95781602001602082028038833980820191505090505b50905073c02aaa39b223fe8d0a0e5c4f27ead9083c756cc2816000815181106115ee57fe5b602002602001019073ffffffffffffffffffffffffffffffffffffffff16908173ffffffffffffffffffffffffffffffffffffffff1681525050600160009054906101000a900473ffffffffffffffffffffffffffffffffffffffff168160018151811061165857fe5b602002602001019073ffffffffffffffffffffffffffffffffffffffff16908173ffffffffffffffffffffffffffffffffffffffff1681525050737a250d5630b4cf539739df2c5dacb4c659f2488d73ffffffffffffffffffffffffffffffffffffffff16631f00ca7483836040518363ffffffff1660e01b81526004018083815260200180602001828103825283818151815260200191508051906020019060200280838360005b8381101561171c578082015181840152602081019050611701565b50505050905001935050505060006040518083038186803b15801561174057600080fd5b505afa158015611754573d6000803e3d6000fd5b505050506040513d6000823e3d601f19601f82011682018060405250602081101561177e57600080fd5b810190808051604051939291908464010000000082111561179e57600080fd5b838201915060208201858111156117b457600080fd5b82518660208202830111640100000000821117156117d157600080fd5b8083526020830192505050908051906020019060200280838360005b838110156118085780820151818401526020810190506117ed565b5050505090500160405250505060008151811061182157fe5b602002602001015192505050919050565b600061186b61186561184f6005548561262690919063ffffffff16565b6118576113a9565b61265a90919063ffffffff16565b83611c1f565b9050919050565b60006118ad61271061189f600360149054906101000a900460ff1660ff168561262690919063ffffffff16565b61267190919063ffffffff16565b9050919050565b600360009054906101000a900473ffffffffffffffffffffffffffffffffffffffff1673ffffffffffffffffffffffffffffffffffffffff163373ffffffffffffffffffffffffffffffffffffffff161461190e57600080fd5b80600360006101000a81548173ffffffffffffffffffffffffffffffffffffffff021916908373ffffffffffffffffffffffffffffffffffffffff16021790555050565b60006119613384846000611c85565b905092915050565b60055481565b600061197b3383611952565b9050919050565b61198a611352565b61199357600080fd5b60008390508073ffffffffffffffffffffffffffffffffffffffff1663a9059cbb84846040518363ffffffff1660e01b8152600401808373ffffffffffffffffffffffffffffffffffffffff1673ffffffffffffffffffffffffffffffffffffffff16815260200182815260200192505050602060405180830381600087803b158015611a1f57600080fd5b505af1158015611a33573d6000803e3d6000fd5b505050506040513d6020811015611a4957600080fd5b8101908080519060200190929190505050611acc576040517f08c379a000000000000000000000000000000000000000000000000000000000815260040180806020018281038252600f8152602001807f5472616e73666572206661696c6564000000000000000000000000000000000081525060200191505060405180910390fd5b50505050565b600080611ade83611832565b9050611ae981611872565b8103915050919050565b6000611aff338361104e565b9050919050565b6000611b1061131c565b15611ba7576000611b2c6006548461265a90919063ffffffff16565b90506000611b506005546007548481611b4157fe5b0461262690919063ffffffff16565b9050600860009054906101000a900460ff1615611b8557611b7c8160045461268590919063ffffffff16565b92505050611bad565b6004548110611b9957600092505050611bad565b806004540392505050611bad565b60045490505b919050565b611bba611352565b611bc357600080fd5b611bcc8161269f565b50565b611bd7611352565b611be057600080fd5b8160048190555080600581905550426006819055505050565b600260009054906101000a900473ffffffffffffffffffffffffffffffffffffffff1681565b60006001821015611c2f57600080fd5b6000611c496005546001850361262690919063ffffffff16565b84019050611c7c836002611c66848861268590919063ffffffff16565b81611c6d57fe5b0461262690919063ffffffff16565b91505092915050565b600080611c9184610b75565b90506000600160009054906101000a900473ffffffffffffffffffffffffffffffffffffffff16905083821115611dc8578073ffffffffffffffffffffffffffffffffffffffff166323b872dd88308786036040518463ffffffff1660e01b8152600401808473ffffffffffffffffffffffffffffffffffffffff1673ffffffffffffffffffffffffffffffffffffffff1681526020018373ffffffffffffffffffffffffffffffffffffffff1673ffffffffffffffffffffffffffffffffffffffff1681526020018281526020019350505050602060405180830381600087803b158015611d7f57600080fd5b505af1158015611d93573d6000803e3d6000fd5b505050506040513d6020811015611da957600080fd5b8101908080519060200190929190505050611dc357600080fd5b611e9f565b83821015611e9e578073ffffffffffffffffffffffffffffffffffffffff1663a9059cbb888487036040518363ffffffff1660e01b8152600401808373ffffffffffffffffffffffffffffffffffffffff1673ffffffffffffffffffffffffffffffffffffffff16815260200182815260200192505050602060405180830381600087803b158015611e5957600080fd5b505af1158015611e6d573d6000803e3d6000fd5b505050506040513d6020811015611e8357600080fd5b8101908080519060200190929190505050611e9d57600080fd5b5b5b6000600260009054906101000a900473ffffffffffffffffffffffffffffffffffffffff1690508073ffffffffffffffffffffffffffffffffffffffff1663a9059cbb88886040518363ffffffff1660e01b8152600401808373ffffffffffffffffffffffffffffffffffffffff1673ffffffffffffffffffffffffffffffffffffffff16815260200182815260200192505050602060405180830381600087803b158015611f4d57600080fd5b505af1158015611f61573d6000803e3d6000fd5b505050506040513d6020811015611f7757600080fd5b8101908080519060200190929190505050611f9157600080fd5b611fba611fa96005548861262690919063ffffffff16565b60045461268590919063ffffffff16565b6004819055507f1d914d293d114e6a0a5b5ab89613368175ca7aec4a5f3995b94a6ce3cbdac2418887600260009054906101000a900473ffffffffffffffffffffffffffffffffffffffff16866000600160009054906101000a900473ffffffffffffffffffffffffffffffffffffffff16600454604051808873ffffffffffffffffffffffffffffffffffffffff1673ffffffffffffffffffffffffffffffffffffffff1681526020018781526020018673ffffffffffffffffffffffffffffffffffffffff1673ffffffffffffffffffffffffffffffffffffffff1681526020018581526020018481526020018373ffffffffffffffffffffffffffffffffffffffff1673ffffffffffffffffffffffffffffffffffffffff16815260200182815260200197505050505050505060405180910390a1829350505050949350505050565b600080600260009054906101000a900473ffffffffffffffffffffffffffffffffffffffff1690508073ffffffffffffffffffffffffffffffffffffffff166323b872dd8630866040518463ffffffff1660e01b8152600401808473ffffffffffffffffffffffffffffffffffffffff1673ffffffffffffffffffffffffffffffffffffffff1681526020018373ffffffffffffffffffffffffffffffffffffffff1673ffffffffffffffffffffffffffffffffffffffff1681526020018281526020019350505050602060405180830381600087803b1580156121e357600080fd5b505af11580156121f7573d6000803e3d6000fd5b505050506040513d602081101561220d57600080fd5b810190808051906020019092919050505061222757600080fd5b6122318484612292565b9150509392505050565b60008183101561224e576000905061228c565b600060018303848161225c57fe5b049050600060055482028403905060006122768284611c1f565b90506122848187038361223b565b830193505050505b92915050565b60008061229e83611832565b90506000600160009054906101000a900473ffffffffffffffffffffffffffffffffffffffff16905060006122d283611872565b905060008111156123cb578173ffffffffffffffffffffffffffffffffffffffff1663a9059cbb600360009054906101000a900473ffffffffffffffffffffffffffffffffffffffff16836040518363ffffffff1660e01b8152600401808373ffffffffffffffffffffffffffffffffffffffff1673ffffffffffffffffffffffffffffffffffffffff16815260200182815260200192505050602060405180830381600087803b15801561238657600080fd5b505af115801561239a573d6000803e3d6000fd5b505050506040513d60208110156123b057600080fd5b81019080805190602001909291905050506123ca57600080fd5b5b8173ffffffffffffffffffffffffffffffffffffffff1663a9059cbb878386036040518363ffffffff1660e01b8152600401808373ffffffffffffffffffffffffffffffffffffffff1673ffffffffffffffffffffffffffffffffffffffff16815260200182815260200192505050602060405180830381600087803b15801561245457600080fd5b505af1158015612468573d6000803e3d6000fd5b505050506040513d602081101561247e57600080fd5b810190808051906020019092919050505061249857600080fd5b6124c16124b06005548761262690919063ffffffff16565b60045461265a90919063ffffffff16565b6004819055507f1d914d293d114e6a0a5b5ab89613368175ca7aec4a5f3995b94a6ce3cbdac2418686600003600260009054906101000a900473ffffffffffffffffffffffffffffffffffffffff168685600160009054906101000a900473ffffffffffffffffffffffffffffffffffffffff16600454604051808873ffffffffffffffffffffffffffffffffffffffff1673ffffffffffffffffffffffffffffffffffffffff1681526020018781526020018673ffffffffffffffffffffffffffffffffffffffff1673ffffffffffffffffffffffffffffffffffffffff1681526020018581526020018481526020018373ffffffffffffffffffffffffffffffffffffffff1673ffffffffffffffffffffffffffffffffffffffff16815260200182815260200197505050505050505060405180910390a182935050505092915050565b600061261282611063565b905061262083848385611c85565b50505050565b6000808314156126395760009050612654565b81830290508183828161264857fe5b041461265057fe5b8090505b92915050565b60008282111561266657fe5b818303905092915050565b600081838161267c57fe5b04905092915050565b600081830190508281101561269657fe5b80905092915050565b600073ffffffffffffffffffffffffffffffffffffffff168173ffffffffffffffffffffffffffffffffffffffff1614156126d957600080fd5b8073ffffffffffffffffffffffffffffffffffffffff166000809054906101000a900473ffffffffffffffffffffffffffffffffffffffff1673ffffffffffffffffffffffffffffffffffffffff167f8be0079c531659141344cd1fd0a4f28419497f9722a3daafe3b4186f6b6457e060405160405180910390a3806000806101000a81548173ffffffffffffffffffffffffffffffffffffffff021916908373ffffffffffffffffffffffffffffffffffffffff1602179055505056fea265627a7a723158202abc58441e1d39c755f406df312305726a22da4fac64ae9efe8f6f53bb8a7e7c64736f6c63430005110032",
  "source": "/**\n* SPDX-License-Identifier: LicenseRef-Aktionariat\n*\n* MIT License with Automated License Fee Payments\n*\n* Copyright (c) 2020 Aktionariat AG (aktionariat.com)\n*\n* Permission is hereby granted to any person obtaining a copy of this software\n* and associated documentation files (the \"Software\"), to deal in the Software\n* without restriction, including without limitation the rights to use, copy,\n* modify, merge, publish, distribute, sublicense, and/or sell copies of the\n* Software, and to permit persons to whom the Software is furnished to do so,\n* subject to the following conditions:\n*\n* - The above copyright notice and this permission notice shall be included in\n*   all copies or substantial portions of the Software.\n* - All automated license fee payments integrated into this and related Software\n*   are preserved.\n*\n* THE SOFTWARE IS PROVIDED \"AS IS\", WITHOUT WARRANTY OF ANY KIND, EXPRESS OR\n* IMPLIED, INCLUDING BUT NOT LIMITED TO THE WARRANTIES OF MERCHANTABILITY,\n* FITNESS FOR A PARTICULAR PURPOSE AND NONINFRINGEMENT. IN NO EVENT SHALL THE\n* AUTHORS OR COPYRIGHT HOLDERS BE LIABLE FOR ANY CLAIM, DAMAGES OR OTHER\n* LIABILITY, WHETHER IN AN ACTION OF CONTRACT, TORT OR OTHERWISE, ARISING FROM,\n* OUT OF OR IN CONNECTION WITH THE SOFTWARE OR THE USE OR OTHER DEALINGS IN THE\n* SOFTWARE.\n*/\npragma solidity >=0.5;\n\nimport \"./SafeMath.sol\";\nimport \"./Ownable.sol\";\nimport \"./Pausable.sol\";\nimport \"./IERC20.sol\";\nimport \"./IUniswapV2.sol\";\n\ncontract Automaton is Ownable, Pausable {\n\n    using SafeMath for uint256;\n\n    address public base;  // ERC-20 currency\n    address public token; // ERC-20 share token\n\n    address public copyright;\n    uint8 public licenseFeeBps; // only charged on sales, max 1% i.e. 100\n\n    uint256 private price; // current offer price, without drift\n    uint256 public increment; // increment\n\n    uint256 private driftStart;\n    uint256 private timeToDrift; // seconds until drift pushes price by one increment\n    bool private driftDirection;\n\n    IUniswapV2 constant uniswap = IUniswapV2(0x7a250d5630B4cF539739dF2C5dAcb4c659F2488D);\n    address constant weth = 0xC02aaA39b223FE8D0A0e5C4F27eAD9083C756Cc2;\n\n    event Transaction(address who, int amount, address token, uint totPrice, uint fee, address base, uint price);\n\n    constructor(address baseCurrency, address shareToken) public {\n        base = baseCurrency;\n        token = shareToken;\n        copyright = msg.sender;\n        driftStart = block.timestamp;\n        timeToDrift = 0;\n    }\n\n    function setPrice(uint256 newPrice, uint256 newIncrement) public onlyOwner {\n        price = newPrice;\n        increment = newIncrement;\n        driftStart = block.timestamp;\n    }\n\n    function hasDrift() public view returns (bool) {\n        return timeToDrift != 0;\n    }\n\n    // secondsPerStep should be negative for downwards drift\n    function setDrift(uint256 secondsPerStep, bool upwards) public onlyOwner {\n        setPrice(getPrice(), increment);\n        timeToDrift = secondsPerStep;\n        driftDirection = upwards;\n    }\n\n    function getPrice() public view returns (uint256) {\n        return getPrice(block.timestamp);\n    }\n\n    function getPrice(uint256 timestamp) public view returns (uint256) {\n        if (hasDrift()){\n            uint256 passed = timestamp.sub(driftStart);\n            uint256 drifted = (passed / timeToDrift).mul(increment);\n            if (driftDirection){\n                return price.add(drifted);\n            } else if (drifted >= price){\n                return 0;\n            } else {\n                return price - drifted;\n            }\n        } else {\n            return price;\n        }\n    }\n\n    function getPriceInEther(uint256 shares) public view returns (uint256) {\n        uint256 totPrice = getBuyPrice(shares);\n        address[] memory path = new address[](2);\n        path[0] = weth;\n        path[1] = base;\n        return uniswap.getAmountsIn(totPrice, path)[0];\n    }\n\n    function buyWithEther(uint256 shares) public payable returns (uint256) {\n        uint256 totPrice = getBuyPrice(shares);\n        address[] memory path = new address[](2);\n        path[0] = weth;\n        path[1] = base;\n        uint256[] memory amounts = uniswap.swapETHForExactTokens(totPrice, path, address(this), block.number);\n        assert(totPrice == amounts[1]);\n        _buy(msg.sender, msg.sender, shares, amounts[1]);\n        uint256 contractEtherBalance = address(this).balance;\n        if (contractEtherBalance > 0){\n            msg.sender.transfer(contractEtherBalance);\n        }\n        return amounts[0];\n    }\n\n    function buy(uint256 numberOfSharesToBuy) public returns (uint256) {\n        return buy(msg.sender, numberOfSharesToBuy);\n    }\n\n    function buy(address recipient, uint256 numberOfSharesToBuy) public returns (uint256) {\n        return _buy(msg.sender, recipient, numberOfSharesToBuy, 0);\n    }\n\n    function _buy(address paying, address recipient, uint256 shares, uint256 alreadyPaid) internal returns (uint256) {\n        uint256 totPrice = getBuyPrice(shares);\n        IERC20 baseToken = IERC20(base);\n        if (totPrice > alreadyPaid){\n            require(baseToken.transferFrom(paying, address(this), totPrice - alreadyPaid));\n        } else if (totPrice < alreadyPaid){\n            // caller paid to much, return excess amount\n            require(baseToken.transfer(paying, alreadyPaid - totPrice));\n        }\n        IERC20 shareToken = IERC20(token);\n        require(shareToken.transfer(recipient, shares));\n        price = price.add(shares.mul(increment));\n        emit Transaction(paying, int256(shares), token, totPrice, 0, base, price);\n        return totPrice;\n    }\n\n    function _notifyMoneyReceived(address from, uint256 amount) internal {\n        uint shares = getShares(amount);\n        _buy(from, from, shares, amount);\n    }\n\n    function sell(uint256 tokens) public returns (uint256){\n        return sell(msg.sender, tokens);\n    }\n\n    function sell(address recipient, uint256 tokens) public returns (uint256){\n        return _sell(msg.sender, recipient, tokens);\n    }\n\n    function _sell(address seller, address recipient, uint256 shares) internal returns (uint256) {\n        IERC20 shareToken = IERC20(token);\n        require(shareToken.transferFrom(seller, address(this), shares));\n        return _notifyTokensReceived(recipient, shares);\n    }\n\n    // ERC-677 recipient\n    function onTokenTransfer(address from, uint256 amount, bytes memory /*data*/) public returns (bool success) {\n        require(msg.sender == token || msg.sender == base);\n        if (msg.sender == token){\n            _notifyTokensReceived(from, amount);\n        } else if (msg.sender == base){\n            _notifyMoneyReceived(from, amount);\n        } else {\n            require(false);\n        }\n        return true;\n    }\n\n    function _notifyTokensReceived(address recipient, uint256 amount) internal returns (uint256){\n        uint256 totPrice = getSellPrice(amount);\n        IERC20 baseToken = IERC20(base);\n        uint256 fee = getSaleFee(totPrice);\n        if (fee > 0){\n            require(baseToken.transfer(copyright, fee));\n        }\n        require(baseToken.transfer(recipient, totPrice - fee));\n        price = price.sub(amount.mul(increment));\n        emit Transaction(recipient, -int256(amount), token, totPrice, fee, base, price);\n        return totPrice;\n    }\n\n    function getSaleFee(uint256 totalPrice) public view returns (uint256) {\n        return totalPrice.mul(licenseFeeBps).div(10000);\n    }\n\n    function getSaleProceeds(uint256 shares) public view returns (uint256) {\n        uint256 total = getSellPrice(shares);\n        return total - getSaleFee(total);\n    }\n\n    function getSellPrice(uint256 shares) public view returns (uint256) {\n        return getPrice(getPrice().sub(shares.mul(increment)), shares);\n    }\n\n    function getBuyPrice(uint256 shares) public view returns (uint256) {\n        return getPrice(getPrice(), shares);\n    }\n\n    function getPrice(uint256 lowest, uint256 shares) internal view returns (uint256){\n        require(shares >= 1);\n        uint256 highest = lowest + (shares - 1).mul(increment);\n        return (lowest.add(highest) / 2).mul(shares);\n    }\n\n    function getShares(uint256 money) public view returns (uint256) {\n        return getShares(money, price);\n    }\n\n    function getShares(uint256 money, uint256 current) internal view returns (uint256) {\n        if (money < current){\n            return 0;\n        } else {\n            uint atleast = money / (current - 1);\n            uint newPrice = current - atleast * increment;\n            uint paid = getPrice(newPrice, atleast);\n            return atleast + getShares(money - paid, newPrice);\n        }\n    }\n\n    function setCopyright(address newOwner) public {\n        require(msg.sender == copyright);\n        copyright = newOwner;\n    }\n\n    function setLicenseFee(uint8 bps) public {\n        require(msg.sender == copyright);\n        require(bps < 100);\n        licenseFeeBps = bps;\n    }\n\n    function withdraw(address ercAddress, address to, uint256 amount) public onlyOwner() {\n        IERC20 erc20 = IERC20(ercAddress);\n        require(erc20.transfer(to, amount), \"Transfer failed\");\n    }\n\n}",
  "sourcePath": "/Users/muratogat/Desktop/Repositories/aktionariat/contracts/automaton/contracts/Automaton.sol",
  "compiler": {
    "name": "solc",
    "version": "0.5.17+commit.d19bba13.Emscripten.clang"
  },
  "schemaVersion": "3.2.2",
  "updatedAt": "2020-07-20T11:29:02.692Z",
  "networkType": "ethereum",
  "devdoc": {
    "methods": {
      "isOwner()": {
        "return": "true if `msg.sender` is the owner of the contract."
      },
      "owner()": {
        "return": "the address of the owner."
      },
      "pause()": {
        "details": "called by the owner to pause, triggers stopped state"
      },
      "paused()": {
        "return": "true if the contract is paused, false otherwise."
      },
      "renounceOwnership()": {
        "details": "Allows the current owner to relinquish control of the contract."
      },
      "transferOwnership(address)": {
        "details": "Allows the current owner to transfer control of the contract to a newOwner.",
        "params": {
          "newOwner": "The address to transfer ownership to."
        }
      },
      "unpause()": {
        "details": "called by the owner to unpause, returns to normal state"
      }
    }
  },
  "userdoc": {
    "methods": {
      "renounceOwnership()": {
        "notice": "Renouncing to ownership will leave the contract without an owner. It will not be possible to call the functions with the `onlyOwner` modifier anymore."
      }
    }
  }
}